{
  "contractName": "AIModelRegistry",
  "abi": [
    {
      "anonymous": false,
      "inputs": [
        {
          "indexed": false,
          "internalType": "uint256",
          "name": "id",
          "type": "uint256"
        },
        {
          "indexed": false,
          "internalType": "string",
          "name": "name",
          "type": "string"
        },
        {
          "indexed": false,
          "internalType": "address",
          "name": "owner",
          "type": "address"
        },
        {
          "indexed": false,
          "internalType": "uint256",
          "name": "timestamp",
          "type": "uint256"
        }
      ],
      "name": "ModelRegistered",
      "type": "event"
    },
    {
      "anonymous": false,
      "inputs": [
        {
          "indexed": false,
          "internalType": "uint256",
          "name": "id",
          "type": "uint256"
        },
        {
          "indexed": false,
          "internalType": "address",
          "name": "oldOwner",
          "type": "address"
        },
        {
          "indexed": false,
          "internalType": "address",
          "name": "newOwner",
          "type": "address"
        },
        {
          "indexed": false,
          "internalType": "uint256",
          "name": "price",
          "type": "uint256"
        }
      ],
      "name": "ModelSold",
      "type": "event"
    },
    {
      "anonymous": false,
      "inputs": [
        {
          "indexed": false,
          "internalType": "uint256",
          "name": "id",
          "type": "uint256"
        },
        {
          "indexed": false,
          "internalType": "uint256",
          "name": "newScore",
          "type": "uint256"
        }
      ],
      "name": "ScoreUpdated",
      "type": "event"
    },
    {
      "inputs": [],
      "name": "modelCount",
      "outputs": [
        {
          "internalType": "uint256",
          "name": "",
          "type": "uint256"
        }
      ],
      "stateMutability": "view",
      "type": "function",
      "constant": true
    },
    {
      "inputs": [
        {
          "internalType": "uint256",
          "name": "",
          "type": "uint256"
        }
      ],
      "name": "models",
      "outputs": [
        {
          "internalType": "uint256",
          "name": "id",
          "type": "uint256"
        },
        {
          "internalType": "string",
          "name": "name",
          "type": "string"
        },
        {
          "internalType": "string",
          "name": "description",
          "type": "string"
        },
        {
          "internalType": "string",
          "name": "modelHash",
          "type": "string"
        },
        {
          "internalType": "address",
          "name": "owner",
          "type": "address"
        },
        {
          "internalType": "uint256",
          "name": "price",
          "type": "uint256"
        },
        {
          "internalType": "uint256",
          "name": "qualityScore",
          "type": "uint256"
        },
        {
          "internalType": "uint256",
          "name": "timestamp",
          "type": "uint256"
        },
        {
          "internalType": "bool",
          "name": "isForSale",
          "type": "bool"
        }
      ],
      "stateMutability": "view",
      "type": "function",
      "constant": true
    },
    {
      "inputs": [
        {
          "internalType": "string",
          "name": "_name",
          "type": "string"
        },
        {
          "internalType": "string",
          "name": "_description",
          "type": "string"
        },
        {
          "internalType": "string",
          "name": "_modelHash",
          "type": "string"
        },
        {
          "internalType": "uint256",
          "name": "_price",
          "type": "uint256"
        }
      ],
      "name": "registerModel",
      "outputs": [],
      "stateMutability": "nonpayable",
      "type": "function"
    },
    {
      "inputs": [
        {
          "internalType": "uint256",
          "name": "_id",
          "type": "uint256"
        }
      ],
      "name": "buyModel",
      "outputs": [],
      "stateMutability": "payable",
      "type": "function",
      "payable": true
    },
    {
      "inputs": [
        {
          "internalType": "uint256",
          "name": "_id",
          "type": "uint256"
        },
        {
          "internalType": "uint256",
          "name": "_score",
          "type": "uint256"
        }
      ],
      "name": "updateQualityScore",
      "outputs": [],
      "stateMutability": "nonpayable",
      "type": "function"
    },
    {
      "inputs": [
        {
          "internalType": "uint256",
          "name": "_id",
          "type": "uint256"
        }
      ],
      "name": "getModel",
      "outputs": [
        {
          "components": [
            {
              "internalType": "uint256",
              "name": "id",
              "type": "uint256"
            },
            {
              "internalType": "string",
              "name": "name",
              "type": "string"
            },
            {
              "internalType": "string",
              "name": "description",
              "type": "string"
            },
            {
              "internalType": "string",
              "name": "modelHash",
              "type": "string"
            },
            {
              "internalType": "address",
              "name": "owner",
              "type": "address"
            },
            {
              "internalType": "uint256",
              "name": "price",
              "type": "uint256"
            },
            {
              "internalType": "uint256",
              "name": "qualityScore",
              "type": "uint256"
            },
            {
              "internalType": "uint256",
              "name": "timestamp",
              "type": "uint256"
            },
            {
              "internalType": "bool",
              "name": "isForSale",
              "type": "bool"
            }
          ],
          "internalType": "struct AIModelRegistry.AIModel",
          "name": "",
          "type": "tuple"
        }
      ],
      "stateMutability": "view",
      "type": "function",
      "constant": true
    }
  ],
  "bytecode": "0x6080604052600060015534801561001557600080fd5b50611478806100256000396000f3fe6080604052600436106100555760003560e01c80633a0085531461005a5780636a030ca9146100835780636d361694146100c85780639a7a0c9614610105578063bf6a6fc11461012e578063c6a645fe1461014a575b600080fd5b34801561006657600080fd5b50610081600480360381019061007c9190610c32565b610175565b005b34801561008f57600080fd5b506100aa60048036038101906100a59190610cdd565b61032c565b6040516100bf9998979695949392919061112f565b60405180910390f35b3480156100d457600080fd5b506100ef60048036038101906100ea9190610cdd565b61053f565b6040516100fc9190611061565b60405180910390f35b34801561011157600080fd5b5061012c60048036038101906101279190610d06565b6107bb565b005b61014860048036038101906101439190610cdd565b610856565b005b34801561015657600080fd5b5061015f610aa8565b60405161016c9190611083565b60405180910390f35b6001600081548092919061018890611344565b919050555060405180610120016040528060015481526020018581526020018481526020018381526020013373ffffffffffffffffffffffffffffffffffffffff16815260200182815260200160008152602001428152602001600115158152506000806001548152602001908152602001600020600082015181600001556020820151816001019080519060200190610223929190610aae565b506040820151816002019080519060200190610240929190610aae565b50606082015181600301908051906020019061025d929190610aae565b5060808201518160040160006101000a81548173ffffffffffffffffffffffffffffffffffffffff021916908373ffffffffffffffffffffffffffffffffffffffff16021790555060a0820151816005015560c0820151816006015560e082015181600701556101008201518160080160006101000a81548160ff0219169083151502179055509050507f74c5ac8c4e5344f2162446f54788cb707d90e82ba699f9d2fd265d91f9d0d41060015485334260405161031e94939291906110e3565b60405180910390a150505050565b600060205280600052604060002060009150905080600001549080600101805461035590611312565b80601f016020809104026020016040519081016040528092919081815260200182805461038190611312565b80156103ce5780601f106103a3576101008083540402835291602001916103ce565b820191906000526020600020905b8154815290600101906020018083116103b157829003601f168201915b5050505050908060020180546103e390611312565b80601f016020809104026020016040519081016040528092919081815260200182805461040f90611312565b801561045c5780601f106104315761010080835404028352916020019161045c565b820191906000526020600020905b81548152906001019060200180831161043f57829003601f168201915b50505050509080600301805461047190611312565b80601f016020809104026020016040519081016040528092919081815260200182805461049d90611312565b80156104ea5780601f106104bf576101008083540402835291602001916104ea565b820191906000526020600020905b8154815290600101906020018083116104cd57829003601f168201915b5050505050908060040160009054906101000a900473ffffffffffffffffffffffffffffffffffffffff16908060050154908060060154908060070154908060080160009054906101000a900460ff16905089565b610547610b34565b600080838152602001908152602001600020604051806101200160405290816000820154815260200160018201805461057f90611312565b80601f01602080910402602001604051908101604052809291908181526020018280546105ab90611312565b80156105f85780601f106105cd576101008083540402835291602001916105f8565b820191906000526020600020905b8154815290600101906020018083116105db57829003601f168201915b5050505050815260200160028201805461061190611312565b80601f016020809104026020016040519081016040528092919081815260200182805461063d90611312565b801561068a5780601f1061065f5761010080835404028352916020019161068a565b820191906000526020600020905b81548152906001019060200180831161066d57829003601f168201915b505050505081526020016003820180546106a390611312565b80601f01602080910402602001604051908101604052809291908181526020018280546106cf90611312565b801561071c5780601f106106f15761010080835404028352916020019161071c565b820191906000526020600020905b8154815290600101906020018083116106ff57829003601f168201915b505050505081526020016004820160009054906101000a900473ffffffffffffffffffffffffffffffffffffffff1673ffffffffffffffffffffffffffffffffffffffff1673ffffffffffffffffffffffffffffffffffffffff1681526020016005820154815260200160068201548152602001600782015481526020016008820160009054906101000a900460ff1615151515815250509050919050565b60648111156107ff576040517f08c379a00000000000000000000000000000000000000000000000000000000081526004016107f690611021565b60405180910390fd5b80600080848152602001908152602001600020600601819055507fefd5a7f141ae02cd40bc84ffe6ebb58811cb61dfd017746842a005c78bfed852828260405161084a9291906111d1565b60405180910390a15050565b600080600083815260200190815260200160002090508060080160009054906101000a900460ff166108bd576040517f08c379a00000000000000000000000000000000000000000000000000000000081526004016108b490610fe1565b60405180910390fd5b8060050154341015610904576040517f08c379a00000000000000000000000000000000000000000000000000000000081526004016108fb90611041565b60405180910390fd5b8060040160009054906101000a900473ffffffffffffffffffffffffffffffffffffffff1673ffffffffffffffffffffffffffffffffffffffff163373ffffffffffffffffffffffffffffffffffffffff161415610997576040517f08c379a000000000000000000000000000000000000000000000000000000000815260040161098e90611001565b60405180910390fd5b60008160040160009054906101000a900473ffffffffffffffffffffffffffffffffffffffff169050338260040160006101000a81548173ffffffffffffffffffffffffffffffffffffffff021916908373ffffffffffffffffffffffffffffffffffffffff16021790555060008260080160006101000a81548160ff0219169083151502179055508073ffffffffffffffffffffffffffffffffffffffff166108fc349081150290604051600060405180830381858888f19350505050158015610a66573d6000803e3d6000fd5b507e8fd8c44923848e6375318478ece4e895cf58de1d35fa442cb6fc9cae62e85583823334604051610a9b949392919061109e565b60405180910390a1505050565b60015481565b828054610aba90611312565b90600052602060002090601f016020900481019282610adc5760008555610b23565b82601f10610af557805160ff1916838001178555610b23565b82800160010185558215610b23579182015b82811115610b22578251825591602001919060010190610b07565b5b509050610b309190610b98565b5090565b60405180610120016040528060008152602001606081526020016060815260200160608152602001600073ffffffffffffffffffffffffffffffffffffffff1681526020016000815260200160008152602001600081526020016000151581525090565b5b80821115610bb1576000816000905550600101610b99565b5090565b6000610bc8610bc38461122b565b6111fa565b905082815260208101848484011115610be057600080fd5b610beb8482856112d0565b509392505050565b600082601f830112610c0457600080fd5b8135610c14848260208601610bb5565b91505092915050565b600081359050610c2c8161142b565b92915050565b60008060008060808587031215610c4857600080fd5b600085013567ffffffffffffffff811115610c6257600080fd5b610c6e87828801610bf3565b945050602085013567ffffffffffffffff811115610c8b57600080fd5b610c9787828801610bf3565b935050604085013567ffffffffffffffff811115610cb457600080fd5b610cc087828801610bf3565b9250506060610cd187828801610c1d565b91505092959194509250565b600060208284031215610cef57600080fd5b6000610cfd84828501610c1d565b91505092915050565b60008060408385031215610d1957600080fd5b6000610d2785828601610c1d565b9250506020610d3885828601610c1d565b9150509250929050565b610d4b81611288565b82525050565b610d5a81611288565b82525050565b610d698161129a565b82525050565b610d788161129a565b82525050565b6000610d898261125b565b610d938185611266565b9350610da38185602086016112df565b610dac8161141a565b840191505092915050565b6000610dc28261125b565b610dcc8185611277565b9350610ddc8185602086016112df565b610de58161141a565b840191505092915050565b6000610dfd601583611277565b91507f4d6f64656c206973206e6f7420666f722073616c6500000000000000000000006000830152602082019050919050565b6000610e3d601a83611277565b91507f596f7520616c7265616479206f776e2074686973206d6f64656c0000000000006000830152602082019050919050565b6000610e7d601f83611277565b91507f53636f7265206d757374206265206265747765656e203020616e6420313030006000830152602082019050919050565b6000610ebd601483611277565b91507f496e73756666696369656e74207061796d656e740000000000000000000000006000830152602082019050919050565b600061012083016000830151610f096000860182610fc3565b5060208301518482036020860152610f218282610d7e565b91505060408301518482036040860152610f3b8282610d7e565b91505060608301518482036060860152610f558282610d7e565b9150506080830151610f6a6080860182610d42565b5060a0830151610f7d60a0860182610fc3565b5060c0830151610f9060c0860182610fc3565b5060e0830151610fa360e0860182610fc3565b50610100830151610fb8610100860182610d60565b508091505092915050565b610fcc816112c6565b82525050565b610fdb816112c6565b82525050565b60006020820190508181036000830152610ffa81610df0565b9050919050565b6000602082019050818103600083015261101a81610e30565b9050919050565b6000602082019050818103600083015261103a81610e70565b9050919050565b6000602082019050818103600083015261105a81610eb0565b9050919050565b6000602082019050818103600083015261107b8184610ef0565b905092915050565b60006020820190506110986000830184610fd2565b92915050565b60006080820190506110b36000830187610fd2565b6110c06020830186610d51565b6110cd6040830185610d51565b6110da6060830184610fd2565b95945050505050565b60006080820190506110f86000830187610fd2565b818103602083015261110a8186610db7565b90506111196040830185610d51565b6111266060830184610fd2565b95945050505050565b600061012082019050611145600083018c610fd2565b8181036020830152611157818b610db7565b9050818103604083015261116b818a610db7565b9050818103606083015261117f8189610db7565b905061118e6080830188610d51565b61119b60a0830187610fd2565b6111a860c0830186610fd2565b6111b560e0830185610fd2565b6111c3610100830184610d6f565b9a9950505050505050505050565b60006040820190506111e66000830185610fd2565b6111f36020830184610fd2565b9392505050565b6000604051905081810181811067ffffffffffffffff82111715611221576112206113eb565b5b8060405250919050565b600067ffffffffffffffff821115611246576112456113eb565b5b601f19601f8301169050602081019050919050565b600081519050919050565b600082825260208201905092915050565b600082825260208201905092915050565b6000611293826112a6565b9050919050565b60008115159050919050565b600073ffffffffffffffffffffffffffffffffffffffff82169050919050565b6000819050919050565b82818337600083830152505050565b60005b838110156112fd5780820151818401526020810190506112e2565b8381111561130c576000848401525b50505050565b6000600282049050600182168061132a57607f821691505b6020821081141561133e5761133d6113bc565b5b50919050565b600061134f826112c6565b91507fffffffffffffffffffffffffffffffffffffffffffffffffffffffffffffffff8214156113825761138161138d565b5b600182019050919050565b7f4e487b7100000000000000000000000000000000000000000000000000000000600052601160045260246000fd5b7f4e487b7100000000000000000000000000000000000000000000000000000000600052602260045260246000fd5b7f4e487b7100000000000000000000000000000000000000000000000000000000600052604160045260246000fd5b6000601f19601f8301169050919050565b611434816112c6565b811461143f57600080fd5b5056fea2646970667358221220d3a10c1559d5bcd9e7c79de4b2ddd3283724f28d35a140c474e46f944fde2ff664736f6c63430008000033",
  "immutableReferences": {},
  "source": "// SPDX-License-Identifier: MIT\r\npragma solidity ^0.8.0;\r\n\r\ncontract AIModelRegistry {\r\n    \r\n    // Structure to store AI Model details\r\n    struct AIModel {\r\n        uint256 id;\r\n        string name;\r\n        string description;\r\n        string modelHash;\r\n        address owner;\r\n        uint256 price;\r\n        uint256 qualityScore;\r\n        uint256 timestamp;\r\n        bool isForSale;\r\n    }\r\n\r\n    // Store all models\r\n    mapping(uint256 => AIModel) public models;\r\n    uint256 public modelCount = 0;\r\n\r\n    // Events\r\n    event ModelRegistered(uint256 id, string name, address owner, uint256 timestamp);\r\n    event ModelSold(uint256 id, address oldOwner, address newOwner, uint256 price);\r\n    event ScoreUpdated(uint256 id, uint256 newScore);\r\n\r\n    // Register a new AI Model\r\n    function registerModel(\r\n        string memory _name,\r\n        string memory _description,\r\n        string memory _modelHash,\r\n        uint256 _price\r\n    ) public {\r\n        modelCount++;\r\n        models[modelCount] = AIModel(\r\n            modelCount,\r\n            _name,\r\n            _description,\r\n            _modelHash,\r\n            msg.sender,\r\n            _price,\r\n            0,\r\n            block.timestamp,\r\n            true\r\n        );\r\n        emit ModelRegistered(modelCount, _name, msg.sender, block.timestamp);\r\n    }\r\n\r\n    // Buy a model\r\n    function buyModel(uint256 _id) public payable {\r\n        AIModel storage model = models[_id];\r\n        require(model.isForSale, \"Model is not for sale\");\r\n        require(msg.value >= model.price, \"Insufficient payment\");\r\n        require(msg.sender != model.owner, \"You already own this model\");\r\n\r\n        address previousOwner = model.owner;\r\n        model.owner = msg.sender;\r\n        model.isForSale = false;\r\n\r\n        payable(previousOwner).transfer(msg.value);\r\n        emit ModelSold(_id, previousOwner, msg.sender, msg.value);\r\n    }\r\n\r\n    // Update quality score\r\n    function updateQualityScore(uint256 _id, uint256 _score) public {\r\n        require(_score <= 100, \"Score must be between 0 and 100\");\r\n        models[_id].qualityScore = _score;\r\n        emit ScoreUpdated(_id, _score);\r\n    }\r\n\r\n    // Get model details\r\n    function getModel(uint256 _id) public view returns (AIModel memory) {\r\n        return models[_id];\r\n    }\r\n}",
  "sourcePath": "C:\\Users\\abhir\\Projects\\ai-marketplace\\contracts\\AIModelRegistry.sol",
  "compiler": {
    "name": "solc",
    "version": "0.8.0+commit.c7dfd78e.Emscripten.clang"
  },
  "schemaVersion": "3.4.16",
  "updatedAt": "2026-03-05T17:29:41.738Z",
  "networkType": "ethereum",
  "devdoc": {
    "kind": "dev",
    "methods": {},
    "version": 1
  },
  "userdoc": {
    "kind": "user",
    "methods": {},
    "version": 1
  }
}